{
    "contractName": "Dex",
    "abi": [
        {
            "inputs": [],
            "stateMutability": "nonpayable",
            "type": "constructor"
        },
        {
            "inputs": [],
            "name": "buyDAI",
            "outputs": [],
            "stateMutability": "nonpayable",
            "type": "function"
        },
        {
            "inputs": [
                {
                    "internalType": "address",
                    "name": "",
                    "type": "address"
                }
            ],
            "name": "daiBalances",
            "outputs": [
                {
                    "internalType": "uint256",
                    "name": "",
                    "type": "uint256"
                }
            ],
            "stateMutability": "view",
            "type": "function"
        },
        {
            "inputs": [
                {
                    "internalType": "uint256",
                    "name": "_amount",
                    "type": "uint256"
                }
            ],
            "name": "depositDAI",
            "outputs": [],
            "stateMutability": "nonpayable",
            "type": "function"
        },
        {
            "inputs": [
                {
                    "internalType": "uint256",
                    "name": "_amount",
                    "type": "uint256"
                }
            ],
            "name": "depositUSDC",
            "outputs": [],
            "stateMutability": "nonpayable",
            "type": "function"
        },
        {
            "inputs": [
                {
                    "internalType": "address",
                    "name": "_tokenAddress",
                    "type": "address"
                }
            ],
            "name": "getBalance",
            "outputs": [
                {
                    "internalType": "uint256",
                    "name": "",
                    "type": "uint256"
                }
            ],
            "stateMutability": "view",
            "type": "function"
        },
        {
            "inputs": [],
            "name": "owner",
            "outputs": [
                {
                    "internalType": "address payable",
                    "name": "",
                    "type": "address"
                }
            ],
            "stateMutability": "view",
            "type": "function"
        },
        {
            "inputs": [],
            "name": "sellDAI",
            "outputs": [],
            "stateMutability": "nonpayable",
            "type": "function"
        },
        {
            "inputs": [
                {
                    "internalType": "address",
                    "name": "",
                    "type": "address"
                }
            ],
            "name": "usdcBalances",
            "outputs": [
                {
                    "internalType": "uint256",
                    "name": "",
                    "type": "uint256"
                }
            ],
            "stateMutability": "view",
            "type": "function"
        },
        {
            "inputs": [
                {
                    "internalType": "address",
                    "name": "_tokenAddress",
                    "type": "address"
                }
            ],
            "name": "withdraw",
            "outputs": [],
            "stateMutability": "nonpayable",
            "type": "function"
        },
        {
            "stateMutability": "payable",
            "type": "receive"
        }
    ],
    "bytecode": "60c060405273ff34b3d4aee8ddcd6f9afffb6fe49bd371b8a3576080527394a9d9ac8a22534e3faca9f4e7f2e2cf85d5e4c860a052605a600355606460045534801561004a57600080fd5b50600080546001600160a01b03199081163317909155608051600180546001600160a01b0392831690841617905560a0516002805491909216921691909117905560805160a05161084b6100aa600039600050506000505061084b6000f3fe60806040526004361061008a5760003560e01c80638da5cb5b116100595780638da5cb5b14610102578063a99c68c51461013f578063ef0673421461017a578063f688bcfb146101a7578063f8b2cb4f146101c757600080fd5b806305abf9041461009657806315602991146100ad578063365833e1146100c257806351cff8d9146100e257600080fd5b3661009157005b600080fd5b3480156100a257600080fd5b506100ab6101e7565b005b3480156100b957600080fd5b506100ab61029a565b3480156100ce57600080fd5b506100ab6100dd366004610722565b61030e565b3480156100ee57600080fd5b506100ab6100fd36600461073b565b610479565b34801561010e57600080fd5b50600054610122906001600160a01b031681565b6040516001600160a01b0390911681526020015b60405180910390f35b34801561014b57600080fd5b5061016c61015a36600461073b565b60066020526000908152604090205481565b604051908152602001610136565b34801561018657600080fd5b5061016c61019536600461073b565b60056020526000908152604090205481565b3480156101b357600080fd5b506100ab6101c2366004610722565b61058f565b3480156101d357600080fd5b5061016c6101e236600461073b565b6106b1565b60035433600090815260066020526040812054909161020591610781565b6102109060646107a3565b61021f9064e8d4a510006107a3565b60015460405163a9059cbb60e01b8152336004820152602481018390529192506001600160a01b03169063a9059cbb906044015b6020604051808303816000875af1158015610272573d6000803e3d6000fd5b505050506040513d601f19601f8201168201806040525081019061029691906107c2565b5050565b60045433600090815260056020526040812054909164e8d4a51000916064916102c2916107a3565b6102cc9190610781565b6102d69190610781565b60025460405163a9059cbb60e01b8152336004820152602481018390529192506001600160a01b03169063a9059cbb90604401610253565b336000908152600560205260408120805483929061032d9084906107e4565b9091555050600154604051636eb1769f60e11b81523360048201523060248201526000916001600160a01b03169063dd62ed3e90604401602060405180830381865afa158015610381573d6000803e3d6000fd5b505050506040513d601f19601f820116820180604052508101906103a591906107fc565b9050818110156103f85760405162461bcd60e51b8152602060048201526019602482015278436865636b2074686520746f6b656e20616c6c6f77616e636560381b60448201526064015b60405180910390fd5b6001546040516323b872dd60e01b8152336004820152306024820152604481018490526001600160a01b03909116906323b872dd906064015b6020604051808303816000875af1158015610450573d6000803e3d6000fd5b505050506040513d601f19601f8201168201806040525081019061047491906107c2565b505050565b6000546001600160a01b031633146104ea5760405162461bcd60e51b815260206004820152602e60248201527f4f6e6c792074686520636f6e7472616374206f776e65722063616e2063616c6c60448201526d103a3434b990333ab731ba34b7b760911b60648201526084016103ef565b6040516370a0823160e01b815230600482015281906001600160a01b0382169063a9059cbb90339083906370a0823190602401602060405180830381865afa15801561053a573d6000803e3d6000fd5b505050506040513d601f19601f8201168201806040525081019061055e91906107fc565b6040516001600160e01b031960e085901b1681526001600160a01b0390921660048301526024820152604401610431565b33600090815260066020526040812080548392906105ae9084906107e4565b9091555050600254604051636eb1769f60e11b81523360048201523060248201526000916001600160a01b03169063dd62ed3e90604401602060405180830381865afa158015610602573d6000803e3d6000fd5b505050506040513d601f19601f8201168201806040525081019061062691906107fc565b9050818110156106745760405162461bcd60e51b8152602060048201526019602482015278436865636b2074686520746f6b656e20616c6c6f77616e636560381b60448201526064016103ef565b6002546040516323b872dd60e01b8152336004820152306024820152604481018490526001600160a01b03909116906323b872dd90606401610431565b6040516370a0823160e01b81523060048201526000906001600160a01b038316906370a0823190602401602060405180830381865afa1580156106f8573d6000803e3d6000fd5b505050506040513d601f19601f8201168201806040525081019061071c91906107fc565b92915050565b60006020828403121561073457600080fd5b5035919050565b60006020828403121561074d57600080fd5b81356001600160a01b038116811461076457600080fd5b9392505050565b634e487b7160e01b600052601160045260246000fd5b60008261079e57634e487b7160e01b600052601260045260246000fd5b500490565b60008160001904831182151516156107bd576107bd61076b565b500290565b6000602082840312156107d457600080fd5b8151801515811461076457600080fd5b600082198211156107f7576107f761076b565b500190565b60006020828403121561080e57600080fd5b505191905056fea2646970667358221220618da77096e721492e07af649223430755f88856f06c52db37a901019a3f95f764736f6c634300080a0033",
    "sourcePath": "c:/Users/leoni/FLASH_LOAN_TUTORIAL/contracts/Dex.sol",
    "compiler": {
        "name": "solc",
        "version": "0.8.10+commit.fc410830"
    },
    "functionHashes": {
        "buyDAI()": "05abf904",
        "daiBalances(address)": "ef067342",
        "depositDAI(uint256)": "365833e1",
        "depositUSDC(uint256)": "f688bcfb",
        "getBalance(address)": "f8b2cb4f",
        "owner()": "8da5cb5b",
        "sellDAI()": "15602991",
        "usdcBalances(address)": "a99c68c5",
        "withdraw(address)": "51cff8d9"
    },
    "gasEstimates": {
        "creation": {
            "codeDepositCost": "424600",
            "executionCost": "infinite",
            "totalCost": "infinite"
        },
        "external": {
            "buyDAI()": "infinite",
            "daiBalances(address)": "2528",
            "depositDAI(uint256)": "infinite",
            "depositUSDC(uint256)": "infinite",
            "getBalance(address)": "infinite",
            "owner()": "2326",
            "sellDAI()": "infinite",
            "usdcBalances(address)": "2506",
            "withdraw(address)": "infinite"
        }
    }
}