{
    "contractName": "FlashLoanArbitrage",
    "abi": [
        {
            "inputs": [
                {
                    "internalType": "address",
                    "name": "_addressProvider",
                    "type": "address"
                }
            ],
            "stateMutability": "nonpayable",
            "type": "constructor"
        },
        {
            "inputs": [],
            "name": "ADDRESSES_PROVIDER",
            "outputs": [
                {
                    "internalType": "contract IPoolAddressesProvider",
                    "name": "",
                    "type": "address"
                }
            ],
            "stateMutability": "view",
            "type": "function"
        },
        {
            "inputs": [],
            "name": "POOL",
            "outputs": [
                {
                    "internalType": "contract IPool",
                    "name": "",
                    "type": "address"
                }
            ],
            "stateMutability": "view",
            "type": "function"
        },
        {
            "inputs": [],
            "name": "allowanceDAI",
            "outputs": [
                {
                    "internalType": "uint256",
                    "name": "",
                    "type": "uint256"
                }
            ],
            "stateMutability": "view",
            "type": "function"
        },
        {
            "inputs": [],
            "name": "allowanceUSDC",
            "outputs": [
                {
                    "internalType": "uint256",
                    "name": "",
                    "type": "uint256"
                }
            ],
            "stateMutability": "view",
            "type": "function"
        },
        {
            "inputs": [
                {
                    "internalType": "uint256",
                    "name": "_amount",
                    "type": "uint256"
                }
            ],
            "name": "approveDAI",
            "outputs": [
                {
                    "internalType": "bool",
                    "name": "",
                    "type": "bool"
                }
            ],
            "stateMutability": "nonpayable",
            "type": "function"
        },
        {
            "inputs": [
                {
                    "internalType": "uint256",
                    "name": "_amount",
                    "type": "uint256"
                }
            ],
            "name": "approveUSDC",
            "outputs": [
                {
                    "internalType": "bool",
                    "name": "",
                    "type": "bool"
                }
            ],
            "stateMutability": "nonpayable",
            "type": "function"
        },
        {
            "inputs": [
                {
                    "internalType": "address",
                    "name": "asset",
                    "type": "address"
                },
                {
                    "internalType": "uint256",
                    "name": "amount",
                    "type": "uint256"
                },
                {
                    "internalType": "uint256",
                    "name": "premium",
                    "type": "uint256"
                },
                {
                    "internalType": "address",
                    "name": "initiator",
                    "type": "address"
                },
                {
                    "internalType": "bytes",
                    "name": "params",
                    "type": "bytes"
                }
            ],
            "name": "executeOperation",
            "outputs": [
                {
                    "internalType": "bool",
                    "name": "",
                    "type": "bool"
                }
            ],
            "stateMutability": "nonpayable",
            "type": "function"
        },
        {
            "inputs": [
                {
                    "internalType": "address",
                    "name": "_tokenAddress",
                    "type": "address"
                }
            ],
            "name": "getBalance",
            "outputs": [
                {
                    "internalType": "uint256",
                    "name": "",
                    "type": "uint256"
                }
            ],
            "stateMutability": "view",
            "type": "function"
        },
        {
            "inputs": [
                {
                    "internalType": "address",
                    "name": "_token",
                    "type": "address"
                },
                {
                    "internalType": "uint256",
                    "name": "_amount",
                    "type": "uint256"
                }
            ],
            "name": "requestFlashLoan",
            "outputs": [],
            "stateMutability": "nonpayable",
            "type": "function"
        },
        {
            "inputs": [
                {
                    "internalType": "address",
                    "name": "_tokenAddress",
                    "type": "address"
                }
            ],
            "name": "withdraw",
            "outputs": [],
            "stateMutability": "nonpayable",
            "type": "function"
        },
        {
            "stateMutability": "payable",
            "type": "receive"
        }
    ],
    "bytecode": "61010060405273ff34b3d4aee8ddcd6f9afffb6fe49bd371b8a35760c0527394a9d9ac8a22534e3faca9f4e7f2e2cf85d5e4c860e052600180546001600160a01b031916731633168225005516e6ecc0c177f5b355b8c83ce917905534801561006757600080fd5b50604051610cd4380380610cd483398101604081905261008691610162565b80806001600160a01b03166080816001600160a01b031681525050806001600160a01b031663026b1d5f6040518163ffffffff1660e01b8152600401602060405180830381865afa1580156100df573d6000803e3d6000fd5b505050506040513d601f19601f820116820180604052508101906101039190610162565b6001600160a01b0390811660a05260008054336001600160a01b03199182161790915560c05160028054831691841691909117905560e05160038054831691841691909117905560015460048054919093169116179055506101929050565b60006020828403121561017457600080fd5b81516001600160a01b038116811461018b57600080fd5b9392505050565b60805160a05160c05160e051610b026101d26000396000505060005050600081816101990152818161044101526107e20152600060b30152610b026000f3fe6080604052600436106100955760003560e01c80637535d246116100595780637535d246146101875780637970f920146101bb5780639787ea13146101d0578063d54ba954146101f0578063f8b2cb4f1461021057600080fd5b80630542975c146100a15780631b11d0ff146100f2578063294028ce1461012257806351cff8d9146101455780635f80a9cf1461016757600080fd5b3661009c57005b600080fd5b3480156100ad57600080fd5b506100d57f000000000000000000000000000000000000000000000000000000000000000081565b6040516001600160a01b0390911681526020015b60405180910390f35b3480156100fe57600080fd5b5061011261010d3660046108e1565b610230565b60405190151581526020016100e9565b34801561012e57600080fd5b506101376104d2565b6040519081526020016100e9565b34801561015157600080fd5b50610165610160366004610987565b610553565b005b34801561017357600080fd5b506101126101823660046109a9565b6106b0565b34801561019357600080fd5b506100d57f000000000000000000000000000000000000000000000000000000000000000081565b3480156101c757600080fd5b50610137610735565b3480156101dc57600080fd5b506101126101eb3660046109a9565b610774565b3480156101fc57600080fd5b5061016561020b3660046109c2565b6107b4565b34801561021c57600080fd5b5061013761022b366004610987565b61085a565b6004805460405163f688bcfb60e01b81526000926001600160a01b039092169163f688bcfb9161026a91633b9aca00910190815260200190565b600060405180830381600087803b15801561028457600080fd5b505af1158015610298573d6000803e3d6000fd5b5050600480546040805163016afe4160e21b815290516001600160a01b0390921694506305abf9049350808301926000929182900301818387803b1580156102df57600080fd5b505af11580156102f3573d6000803e3d6000fd5b5050600480546002546040516370a0823160e01b815230938101939093526001600160a01b03918216945063365833e1935016906370a0823190602401602060405180830381865afa15801561034d573d6000803e3d6000fd5b505050506040513d601f19601f8201168201806040525081019061037191906109ec565b6040518263ffffffff1660e01b815260040161038f91815260200190565b600060405180830381600087803b1580156103a957600080fd5b505af11580156103bd573d6000803e3d6000fd5b50506004805460408051631560299160e01b815290516001600160a01b03909216945063156029919350808301926000929182900301818387803b15801561040457600080fd5b505af1158015610418573d6000803e3d6000fd5b505050506000858761042a9190610a05565b60405163095ea7b360e01b81526001600160a01b037f000000000000000000000000000000000000000000000000000000000000000081166004830152602482018390529192509089169063095ea7b3906044016020604051808303816000875af115801561049d573d6000803e3d6000fd5b505050506040513d601f19601f820116820180604052508101906104c19190610a2b565b5060019150505b9695505050505050565b600254600154604051636eb1769f60e11b81523060048201526001600160a01b039182166024820152600092919091169063dd62ed3e906044015b602060405180830381865afa15801561052a573d6000803e3d6000fd5b505050506040513d601f19601f8201168201806040525081019061054e91906109ec565b905090565b6000546001600160a01b031633146105c85760405162461bcd60e51b815260206004820152602e60248201527f4f6e6c792074686520636f6e7472616374206f776e65722063616e2063616c6c60448201526d103a3434b990333ab731ba34b7b760911b606482015260840160405180910390fd5b6040516370a0823160e01b815230600482015281906001600160a01b0382169063a9059cbb90339083906370a0823190602401602060405180830381865afa158015610618573d6000803e3d6000fd5b505050506040513d601f19601f8201168201806040525081019061063c91906109ec565b6040516001600160e01b031960e085901b1681526001600160a01b03909216600483015260248201526044016020604051808303816000875af1158015610687573d6000803e3d6000fd5b505050506040513d601f19601f820116820180604052508101906106ab9190610a2b565b505050565b60035460015460405163095ea7b360e01b81526001600160a01b03918216600482015260248101849052600092919091169063095ea7b3906044015b6020604051808303816000875af115801561070b573d6000803e3d6000fd5b505050506040513d601f19601f8201168201806040525081019061072f9190610a2b565b92915050565b600354600154604051636eb1769f60e11b81523060048201526001600160a01b039182166024820152600092919091169063dd62ed3e9060440161050d565b60025460015460405163095ea7b360e01b81526001600160a01b03918216600482015260248101849052600092919091169063095ea7b3906044016106ec565b60408051602081018252600080825291516310ac2ddf60e21b81523092859285929091906001600160a01b037f000000000000000000000000000000000000000000000000000000000000000016906342b0b77c9061081f9088908890889088908890600401610a4d565b600060405180830381600087803b15801561083957600080fd5b505af115801561084d573d6000803e3d6000fd5b5050505050505050505050565b6040516370a0823160e01b81523060048201526000906001600160a01b038316906370a0823190602401602060405180830381865afa1580156108a1573d6000803e3d6000fd5b505050506040513d601f19601f8201168201806040525081019061072f91906109ec565b80356001600160a01b03811681146108dc57600080fd5b919050565b60008060008060008060a087890312156108fa57600080fd5b610903876108c5565b9550602087013594506040870135935061091f606088016108c5565b9250608087013567ffffffffffffffff8082111561093c57600080fd5b818901915089601f83011261095057600080fd5b81358181111561095f57600080fd5b8a602082850101111561097157600080fd5b6020830194508093505050509295509295509295565b60006020828403121561099957600080fd5b6109a2826108c5565b9392505050565b6000602082840312156109bb57600080fd5b5035919050565b600080604083850312156109d557600080fd5b6109de836108c5565b946020939093013593505050565b6000602082840312156109fe57600080fd5b5051919050565b60008219821115610a2657634e487b7160e01b600052601160045260246000fd5b500190565b600060208284031215610a3d57600080fd5b815180151581146109a257600080fd5b600060018060a01b03808816835260208188168185015286604085015260a06060850152855191508160a085015260005b82811015610a9a5786810182015185820160c001528101610a7e565b82811115610aac57600060c084870101525b5050601f01601f1916820160c00190506104c8608083018461ffff16905256fea2646970667358221220a5ee5de9d9dcbc2fdbe2d36a380d557833fbc54aa6db6c64c24ef505b7e081bd64736f6c634300080a0033",
    "sourcePath": "c:/Users/leoni/FLASH_LOAN_TUTORIAL/contracts/FlashLoanArbitrage.sol",
    "compiler": {
        "name": "solc",
        "version": "0.8.10+commit.fc410830"
    },
    "functionHashes": {
        "ADDRESSES_PROVIDER()": "0542975c",
        "POOL()": "7535d246",
        "allowanceDAI()": "294028ce",
        "allowanceUSDC()": "7970f920",
        "approveDAI(uint256)": "9787ea13",
        "approveUSDC(uint256)": "5f80a9cf",
        "executeOperation(address,uint256,uint256,address,bytes)": "1b11d0ff",
        "getBalance(address)": "f8b2cb4f",
        "requestFlashLoan(address,uint256)": "d54ba954",
        "withdraw(address)": "51cff8d9"
    },
    "gasEstimates": {
        "creation": {
            "codeDepositCost": "563600",
            "executionCost": "infinite",
            "totalCost": "infinite"
        },
        "external": {
            "ADDRESSES_PROVIDER()": "infinite",
            "POOL()": "infinite",
            "allowanceDAI()": "infinite",
            "allowanceUSDC()": "infinite",
            "approveDAI(uint256)": "infinite",
            "approveUSDC(uint256)": "infinite",
            "executeOperation(address,uint256,uint256,address,bytes)": "infinite",
            "getBalance(address)": "infinite",
            "requestFlashLoan(address,uint256)": "infinite",
            "withdraw(address)": "infinite"
        }
    }
}